:100000000C942A000C9436000C9434000C943400A8
:100010000C9434000C9434000C9434000C94340090
:100020000C9434000C9434000C9434000C94340080
:100030000C9434000C9434000C9434000C94340070
:100040000C9434000C9434000C9434000C94340060
:100050000C94340011241FBECFE5D8E0DEBFCDBF25
:100060000E9463000C947A000C9400001F920F927F
:100070000FB60F9211242F933F934F938F939F931B
:1000800084E090E090982FE738E341E02150304041
:100090004040E1F700C00000909A2FE738E341E0CC
:1000A000215030404040E1F700C00000019751F777
:1000B00090989F918F914F913F912F910F900FBEEC
:1000C0000F901F9018958A98889A909A8B9A939877
:1000D0008BB780648BBF789498E082B3892782BB0A
:1000E0002FEF32E587E0215030408040E1F700C03B
:0800F0000000F3CFF894FFCFEC
:00000001FF
